:020000040002F8
:1060000048540020C1630200C9630200CB63020050
:10601000CD630200CF630200D163020000000000E4
:10602000000000000000000000000000D363020038
:10603000D563020000000000D7630200D9630200AC
:10604000A5670200DB630200656A0200DB630200F1
:10605000DB630200DB6302008D650200DB6302008C
:10606000DB630200DB630200DB630200DB63020030
:10607000DB630200DB630200DB630200DB63020020
:10608000DB630200FD670200DB630200DB630200EA
:1060900081680200DB63020085680200DB630200A6
:1060A000DB630200DB630200DB630200DB630200F0
:1060B000DB630200DB630200000000000000000060
:1060C000DB630200DB630200DB630200DB630200D0
:1060D000DB630200DB630200DB630200DB630200C0
:1060E000DB630200DB630200DB63020000000000F0
:1060F00000000000DB63020000000000DB63020020
:10610000000000000000000000000000000000008F
:10611000000000000000000000000000000000007F
:10612000000000000000000000000000000000006F
:10613000000000000000000000000000000000005F
:10614000000000000000000000000000000000004F
:10615000000000000000000000000000000000003F
:10616000000000000000000000000000000000002F
:10617000000000000000000000000000000000001F
:10618000000000000000000000000000000000000F
:1061900000000000000000000000000000000000FF
:1061A00000000000000000000000000000000000EF
:1061B00000000000000000000000000000000000DF
:1061C00000000000000000000000000000000000CF
:1061D00000000000000000000000000000000000BF
:1061E00000000000000000000000000000000000AF
:1061F000000000000000000000000000000000009F
:10620000DFF80CD000F084F900480047C99A02007A
:106210004854002030B450E8012F93B2C48923447D
:106220008489A34228BF1B1B0489A34202BFBFF37A
:106230002F8F002007E0C3EA020340E80134002C5E
:10624000E9D14FF001000A6030BC704750E8012FDF
:10625000C2EA024240E801210029F7D1704730B478
:1062600050E8022F1FFAA2F3C488A34202BFBFF373
:106270002F8F00200DE0C48923448489A34228BFC6
:106280001B1BC2EA034340E80234002CE8D14FF064
:1062900001000A6030BC704750E8022FC2EA224277
:1062A00040E802210029F7D17047034653E8022F46
:1062B000D988B2EB324F4FF0000017BF92B241EADB
:1062C000014142EA014104E05A68B2EB324F08BF93
:1062D000012043E80212002AE8D1704730B4044696
:1062E00054E8000F0D4644E80053002BF8D1156028
:1062F00030BC704730B4044654E8000F40EA010552
:1063000044E80053002BF7D1156030BC704730B41F
:10631000044654E8000F00EA010544E80053002B4E
:10632000F7D1156030BC704730B4044654E8000F14
:1063300080EA010544E80053002BF7D1156030BC1A
:10634000704730B4044654E8000F00EB010544E800
:106350000053002BF7D1156030BC704730B40446B1
:1063600054E8000FA0EB010544E80053002BF7D1DF
:10637000156030BC704770B404464FF0000054E81C
:10638000006F0D68AE4207BF44E80023012044E8D7
:1063900000630E60002B1CBF0020F0E770BC70474C
:1063A00030B4044654E8000F88422CBF451A054615
:1063B00044E80053002BF5D1156030BC7047000055
:1063C0000648804706480047FEE7FEE7FEE7FEE78F
:1063D000FEE7FEE7FEE7FEE7FEE7FEE7896802006C
:1063E000016202002DE9F05F0546002092469B46BF
:1063F00088460646814640241BE0284641464746DB
:10640000224600F074F853465A46C01A914110D300
:1064100011461846224600F016F82D1A67EB0108BF
:106420004F4622460120002100F00DF817EB00092D
:106430004E41201EA4F10104DFDC484631462A46C5
:106440004346BDE8F09F202A04DB203A00FA02F11F
:10645000002070479140C2F1200320FA03F3194352
:10646000904070470048704730DF020040EA010367
:106470009B0703D009E008C9121F08C0042AFAD2FA
:1064800003E011F8013B00F8013B521EF9D27047BE
:10649000D2B201E000F8012B491EFBD27047002266
:1064A000F6E710B513460A4604461946FFF7F0FF13
:1064B000204610BD421C10F8011B0029FBD1801A98
:1064C000704730B504460020034600E05B1C934251
:1064D00003D2E05CCD5C401BF8D030BD034611F820
:1064E000012B00F8012B002AF9D118467047202A09
:1064F00004DB203A21FA02F00021704721FA02F36E
:10650000D040C2F120029140084319467047000074
:10651000064C074D06E0E06840F0010394E80700F0
:1065200098471034AC42F6D3FFF76EFEB4E6020093
:10653000D4E6020070B58C1810F8015B15F0070363
:1065400001D110F8013B2A1106D110F8012B03E00C
:1065500010F8016B01F8016B5B1EF9D12B0705D414
:106560000023521E0DD401F8013BFAE710F8013B5D
:10657000CB1A921C03E013F8015B01F8015B521E79
:10658000F9D5A142D8D3002070BD00002DE9F04F0D
:1065900000268DB0DFF8A081B14604964FF48075D7
:1065A000012437460596284604F02AFA38B1D8F86F
:1065B0000403204203D0284604F018FA26432D1D78
:1065C00064007F1CADB2082FEDD34FF4BE7420469B
:1065D00004F016FA48B1204604F008FA46F00046E6
:1065E00004AA0221002004F0EBF9544C16F0FF0F2E
:1065F00015D00127002537420DD008EB8501D1F8D1
:106600001005D1F81015C0F3052054F82520C1F36A
:10661000014102B190477F006D1C082DEBD3002E85
:106620007EDA0020CDF82890411E0DF1100B07AA4C
:10663000CDF82C9042F82010401C91460228F9D346
:1066400000252E46A11911F8607F91F9000027F06E
:10665000C008401C40D007A9404603F0ACFC40B342
:106660004FEA971A404601F0D7FD54F820701FB149
:10667000BAF1030F03D006E0BAF1030F2CD10AA937
:10668000404603F0A0FC02A8CDF8088004F06CF9A5
:10669000029900EB8100D0F8000704A9C0F3014083
:1066A0000290404603F087FC0028029802D002289E
:1066B00002D011E003280FD1BAF1030F08D10298DC
:1066C000022833D00221404604F028F96D1CEDB2B7
:1066D00017B151464046B847761C042EB2D3002D60
:1066E00021D001AA0221002004F06AF900205A46B4
:1066F0000DF1040152F8206051F82030B34217D058
:1067000000200AAE4FEA090351F8207042F82070C9
:1067100056F8207043F82070401C0228F4D300E0A3
:1067200001E0002D8CD10DB0BDE8F08F0321CAE748
:10673000401C0228DED3F6E7006000406C290020F0
:1067400000F01F02012191404009800000F1E0208B
:10675000C0F88012704700F01F02012191404009EB
:10676000800000F1E020C0F80011704700F01F0227
:10677000012191404009800000F1E020C0F80012A2
:1067800070474907090E002806DA00F00F0000F1F3
:10679000E02080F8141D704700F1E02080F800141C
:1067A0007047000070B54FF48076304603F025FD49
:1067B000114CB50560B1304603F026FD0120C5F847
:1067C0000803607920B901206071216800208847A2
:1067D0004FF48276304603F010FD00280AD0304690
:1067E00003F012FD0220C5F808032168BDE87040DF
:1067F0000120084770BD00009C22002007480021AE
:10680000C0F84011C0F84411C0F84811C0F84C114C
:10681000C0F80011C0F8041106F024BE00100140B9
:1068200000F026B970B50E46144900EB400001EBAC
:10683000C0051446E86A183520B101280FD0022897
:1068400005D113E0284600F047F9A04201D2002408
:1068500011E022463146284600F076F90BE0284642
:1068600000F03AF9A042F4D20446F2E73146284655
:1068700000F03DF90446204670BD0000C031002004
:1068800006F03EBD04F066BE30B54FF080500022E9
:106890008300D0F83011C3F80C21C3F81021624BEB
:1068A0001A60624B1B68624C2360604B1B1D1B68A7
:1068B000241D23605D4B08331B68241D23605B4B44
:1068C0000C331B68241D2360584B10331B68241D98
:1068D0002360564B14331B68241D2360534B18331D
:1068E0001B68534C20342360504B1C331B68241D01
:1068F00023604E4B20331B68241D23604B4B2433F5
:106900001B68241D2360494B28331B68241D23600A
:10691000464B2C331B68241D2360444B30331B68CB
:10692000434C40342360414B34331B68241D2360A7
:106930003E4B38331B68241D23603C4B3C331B68A3
:10694000241D2360394B40331B68241D2360012420
:10695000082902D1D0F8343113B1082904D006E057
:10696000354B3449196005E0D0F8343113B10829AA
:1069700004D006E0314BFB21196005E0D0F834313A
:1069800013B1082908D00EE090F858322C4801685D
:1069900063F30301016002E0D0F834311BB92949E7
:1069A0004FF40070086028480168C90702D06FF0F2
:1069B000010101602548016841F470010160BFF3E5
:1069C0004F8FBFF36F8F4FF01021D1F800020028D6
:1069D00003DBD1F80402002822DA1D4B1C601D489D
:1069E0000468002CFCD01224C1F800420568002D78
:1069F000FCD0C1F8044201680029FCD01A6001688B
:106A00000029FCD0BFF34F8F10487C380168124A30
:106A100001F4E06111430160BFF34F8F00BFFDE758
:106A20000F490E48086030BD3805004004040010CE
:106A300020C50040488103008C56004018F50040F6
:106A4000E40E0040409602400004004088ED00E063
:106A500004E5014000E401400400FA050090D00381
:106A6000B02300200148006800470000A422002055
:106A700010B5124C02202061606111A0A06104F1E8
:106A80007800E0614FF4007020620020A062606234
:106A90000BA1A164E06204F51E71E1641021A06500
:106AA000C4E91410E06509A1E01DFFF717FD08A176
:106AB0002046FFF713FD2020A07110BDC03100203B
:106AC0005465726D696E616C000000005254540090
:106AD00053454747455200000269C1688A4203D8BE
:106AE0008068401A104400E0501A401E70472DE99B
:106AF000F047C4681746894606464FF000083069DB
:106B0000A04201D9051B02E0B168201A0D1AB06835
:106B10006D1E001BA84200D80546BD4200D33D466D
:106B200070682A4620444946FFF7A0FCB0687F1BE6
:106B30002C44A844A944A04200D10024F460002FB2
:106B4000DDD14046BDE8F0872DE9F0410446884696
:106B5000D4E90207C51BE168606816460844B542DF
:106B600006D94146FFF782FCB819E060BDE8F08124
:106B70002A464146FFF77AFC761B08EB05013246B0
:106B80006068FFF773FCE660F0E702E008C8121FD8
:106B900008C1002AFAD170477047002001E001C106
:106BA000121F002AFBD170470121202803DA8140FF
:106BB0000548014003E0402802DA2038814009B14D
:106BC0000120704700207047FC06FFBD10B560B182
:106BD00059B102780B785208B2EB530F05D1062257
:106BE000401C491CFFF76DFC08B1002010BD0120BE
:106BF00010BD800701D00020704701207047C36896
:106C00008B4206D811440069491E814201D80120F7
:106C100070470020704710B50F220021012001F0BD
:106C20000FF908B1072818D110220021022001F025
:106C300007F908B1072810D100210A22084601F0FF
:106C4000FFF808B1072808D111220221032001F022
:106C5000F7F808B1072800D1002010BD10B50321B6
:106C6000044800F0BDFB002803D0BDE8104000F050
:106C7000C1B810BD1C24002070B58CB015460E465E
:106C800000236C46C3F10F01415CE1545B1C102BE7
:106C9000F8D30D2104F11000FFF701FC0020C0F132
:106CA0000F02315C2244401C11740328F7D368465C
:106CB00046DF0020C0F10F01214491F82010295433
:106CC000401C0328F6D30CB070BD022000F06EBF4C
:106CD0000149097900F0D8BC7C22002070B500245D
:106CE000064D06E06868012110F8340004F000FD4C
:106CF000641C28788442F5D3002070BDB0220020A7
:106D0000F8B515460C460646052A01D20720F8BDFF
:106D100004F0E6FD18B904F0A9FD0028F7D11249E6
:106D200000224E600C708D60C1E90422C1E9062288
:106D30000E4D0DE006EBC4002968009181788DF8B6
:106D4000011000780A4A694604F01EFD0028DED1D1
:106D5000641EE4B2EED2BDE8F84004480021054AC2
:106D6000001D00F053B80000B0220020E8DB020054
:106D7000798F02006186020072B604F025F900BF27
:106D800003F008FF0028FBD1104C0121208801EB03
:106D900000400FA104F062F810480068C00700D05E
:106DA00000BE2088022101EB00400DA104F056F83E
:106DB000BFF34F8F0948E43801680D4A01F4E061E0
:106DC00011430160BFF34F8F00BFFDE7F8230020A0
:106DD000466174616C206572726F7200F0ED00E0C4
:106DE00053797374656D20726573657400000000DB
:106DF0000400FA050EB500210091CDE901106A46A4
:106E000044F20100FFF7B8FF0EBD0000074B9B786E
:106E100023B12AB120B10068037C1BB10820704760
:106E2000072070474174426100207047F829002014
:106E300070B505F0B7FD104800240B2104704470B4
:106E40000E4D817014206C602C706C70FFF778FC14
:106E500007211420FFF795FC1420FFF77CFC08485D
:106E6000046007211120FFF78CFC0548001F006813
:106E7000A860002070BD0000F8290020D02200206A
:106E8000081501402DE9FC47DFF8789099F80230A9
:106E900073B368B3052902D20720BDE8FC874369B4
:106EA00033B3437C012B25D00027044600258846B8
:106EB00016468DF80050684600F038F801A806F034
:106EC00099FBC8B1012101700F4944600968C0E90C
:106ED0000218C0E904769DF8040089F801009DF8C5
:106EE000000000F047F81420FFF740FC2846D4E7E4
:106EF0000820D2E70F46D8E704259DF8000000F0EF
:106F000039F8F3E7F829002004150140064989788B
:106F100039B130B1416921B100210174022106F07B
:106F20007DBA082070470000F829002030B5EFF343
:106F3000108172B60D4A9468012324B103700029B0
:106F400000D162B630BD93604FF0E023D3F880519A
:106F5000074C25401560C3F88041D3F88441546044
:106F60005A17C3F8842100220270E8E7042B00209E
:106F7000FC06FFBD0B498A68002A11D000280FD1FA
:106F8000EFF3108072B60B684FF0E022C2F80031C8
:106F90004B68C2F8043100228A60002800D162B632
:106FA00070470000042B002002F0EABC2DE9F047F6
:106FB000074600888EB0804602F03AFA82460446C0
:106FC0002D4800252A460178404600F075FB787967
:106FD000400734D501254FF6FF7603AB2A4607213B
:106FE000504604F01FFE010004D0404605F066FE46
:106FF00000252BE0B1463146049802F08DF9064693
:1070000048450FD004460146404602F0FBF9404691
:10701000FFF75EFE30B9404605F022FE4046FFF71E
:1070200057FE48B122460721504604F071FE010088
:1070300003D0404605F042FE00254E4506D04046AE
:1070400004F09EFF10B1504602F0DEF902208DF8E8
:107050001800ADF81A807879400701D5012000E0CA
:1070600002208DF820008DF8215006A801F046FC82
:107070000EB0BDE8F08700007C2200202DE9FC471F
:10708000002517880646158090F82D00144689467D
:1070900030B13A462146484600F038FB051E09D17A
:1070A000B0784FF00C0A18B32088C846001DB842CB
:1070B00002D95046BDE8FC87684679DF0028F9D13F
:1070C0002088032108F8001020881921401C80B274
:1070D000208008F800102088401C80B2208000EB3F
:1070E0000801BDF8000006F0F7F921880844208067
:1070F000F0780222C8B1218896F9033001F1030C1F
:107100004846BC45D5D8425421884FF0010C491C53
:1071100089B2218000F801C02188491C89B22180F0
:1071200009F801302088401C20807068B8B121889F
:1071300090F9003001F1030C4846BC45B9D84254DF
:1071400021880A22491C89B2218042542188491C85
:1071500089B2218009F801302088401C20803089C4
:1071600050B1CDE900474B460622022106F1080046
:1071700006F058FA051E9DD1308A50B1CDE900477E
:107180004B460722032106F1100006F04BFA051EBC
:1071900090D1308B50B1CDE900474B4615221421D8
:1071A00006F1180006F03EFA051E83D1306A30B1B0
:1071B0003B462246494601F0EAF8051EDBD1706ADB
:1071C00030B13B462246494602F008FD051ED2D1A9
:1071D00096F82C0038B13B4622464946304605F029
:1071E0001BFE051EC7D1307838B13B4622464946C2
:1071F000304602F079FD051EBDD128465AE718B584
:1072000004460020ADF8000013466A46204600F010
:1072100006F8002802D0BDF80000204418BD70B563
:1072200088B182B10024158803E0065D641C3444F3
:10723000A4B2A54203D8061976789E4201D08C42AA
:10724000F3D38C4201D3002070BDA11C1180005DDE
:10725000401E80B270BD80F8301070472DE9F041BB
:107260000E00044606D02CB196F87A0000250128BD
:1072700003D006E00E20BDE8F08196F898000128C2
:1072800021D04FF00108A5702C2206F17801201DB5
:10729000FFF7ECF884F83050D6F8A4006063D6F815
:1072A000A800A0634FF6FF70A4F8A80004F19400B2
:1072B000C4F8A400C4F8AA50A4F8AE5084F8B050A2
:1072C000207810B104E00720D5E7FF2084F85400AF
:1072D00004F155011F27C4F89410A4F8987004F124
:1072E00098023046FFF7CAFE0028C4D116F13C0FC1
:1072F0000ED004F17401C4F89C10A4F8A07004F13D
:10730000A00206F13C00FFF7B9FE0028B3D103E06C
:10731000C4F89C50A4F8A05084F85180208BA4F8A5
:10732000480084F83C80256484F8505060696064AB
:10733000464604F13C02002104F1540072DF0028AB
:1073400099D1267097E710B50288102A1BD0112A10
:1073500020D0262A1DD1007A0C46012801D002280F
:1073600017D1A0780521401CB0FBF1F201FB1201FE
:10737000204600F035F800280BD0A16B002908D07A
:10738000BDE810400847C27B012A02D18088A1F8DD
:10739000A80010BD0C46002184F8B2108088B4F813
:1073A000A8108842F5D120790028F2D10121DFE729
:1073B00010B50C46022801D0032810D160780028AF
:1073C0000DD000206070A178204600F009F8002858
:1073D00005D0A16B002902D0BDE81040084710BDC0
:1073E0002DE9F05F044600780F4638B1A770002001
:1073F00003F0E2F8012620B1667007E10820BDE83D
:10740000F09F0025C4F8AA50A4F8AE5084F8B050FC
:10741000A07910B1A078012806D0E07968B1A078F1
:10742000012801D0022808D1616B21B184F8B16034
:107430000820884701E084F8B15004F1AB01002036
:107440000A5C0AB1304603E0401C0628F8D300204D
:107450004FF002084FF0030B012F06D0022F0CD083
:10746000032F0FD0042F15D110E0A17929B194F882
:10747000241011B908B130460DE0E17911B108B11D
:10748000404608E0207A08B1584604E0607A08B126
:10749000042000E02846A070616B41B1032801D0B0
:1074A000042804D1607910B194F8B200A0B184F836
:1074B000B35004F13C0018210746FEF7F0FF04F139
:1074C0002C0084F83C60814604F03CFE58B194F8EE
:1074D0002C0084F8510008E084F8B45084F8B360BC
:1074E00007208847E5E784F8516094F8240050B1FC
:1074F000484604F027FE20B194F8280084F8520092
:1075000001E084F8526084F85050A27804F1AA0196
:1075100004F194094FF0060A052A60D2DFE802F070
:1075200078030F223F0084F83160C4F8A450C4E906
:10753000101584F83C808020A4F8480051E084F8BD
:10754000318094F82420384612B10722027001E0FD
:1075500080F800B0228A8281C4F8A4504160E168BA
:10756000B9603EE06069B860208BB88194F824006F
:107570003D4610B184F83CA001E084F83C60204610
:1075800006F014F840B185F814800421204601F07B
:107590009DFA20BB05211EE084F831B01DE0E069B2
:1075A000B860208CB88194F824003D4610B184F86E
:1075B0003CA001E084F83C60204605F0F7FF48B1AC
:1075C00085F814800421204601F080FA38B984F847
:1075D00031A002E0042184F83110C4F8A490A0780E
:1075E00078B13A4604F15400D4F8A41072DF0028B0
:1075F0007FF405AF94F8301094F8540073DF00283E
:10760000F6D1616B11B194F8310088470020F6E69D
:1076100084F83150F5E7000010B5044600F06CF82E
:10762000002805D02146BDE81040024802F02FBCDA
:1076300010BD00009426002070B515460E46044685
:1076400005F0C0FF002809D0054800EB84008069E0
:107650002A463146BDE8704001F076BA70BD0000A0
:107660008426002070B50546002400F045F838B1A6
:107670002946044802F00BFC08B1022400E0012472
:10768000204670BD9026002070B505460C46084681
:1076900005F098FF60B1284600F02EF840B105488B
:1076A000294600EB8400BDE87040183002F0EFBBC3
:1076B000002070BD8426002070B5054614460E4695
:1076C000084605F07FFF002812D0284600F014F885
:1076D00000280DD00748294600EB860018301CB161
:1076E000BDE8704002F0DEBBBDE8704002F0C4BBF4
:1076F00070BD000084260020142801D300207047AC
:107700000146014802F0C3BB882600207CB505462F
:1077100008880C460930904201D90C207CBD68468F
:107720006DDF0028FAD121880820685420881B21A9
:10773000401C80B2208029542088401C80B22080C8
:107740002844DDF801100160BDF805108180208813
:10775000801D80B220809DF80010490800D00121D2
:1077600029542088401C208000207CBD2DE9F04158
:1077700000F1080400881D2875D12078000772D414
:10778000E07905286BD1207AD82868D1A069807962
:10779000012864D100F04DFA344890F8540074DFA9
:1077A000334E32480125F570AC21B830FEF777FE34
:1077B000304940F60400088004208E608880A1F1E2
:1077C000AC00416280F87C504FF49671C0F888108C
:1077D00044F25061C0F88C102749C0F8A41001464B
:1077E000B838FFF73BFD08B1FFF704FB01211F4844
:1077F000FFF731FDFFF732FA204D032720A128883B
:1078000007EB004003F02AFB288820A107EB00408B
:1078100003F024FB28880526A28B06EB0040A16913
:1078200003F0C8FA288819A107EB004003F016FB03
:107830002888012206EB0040E11D03F0BBFA2888EE
:10784000012206EB004004F1080103F0B3FA288896
:10785000A16906EB00400122891D03F0ABFA04493F
:10786000083100208ADFBDE8F08100001C240020E0
:107870001422002080250020F5B80200F823002003
:1078800070686F6E65646174610000000D0A00002D
:1078900010B51A4C0188606810290ED011292BD11F
:1078A000401E606028D1FFF7B6F9002824D0216877
:1078B000002921D0BDE810400847D0B9002101229D
:1078C000084600F0BDFA08B107280FD101210722B0
:1078D000084600F0B5FA08B1072807D104220121B3
:1078E000022000F0ADFA20B1072802D0216801B1D2
:1078F00088476068401C606010BD00003422002092
:107900002DE9F04701883B4E40F2F3194FF6FF7521
:1079100010291BD011293ED0122954D0502946D10C
:10792000C188F289841D914241D1618902293ED1E9
:107930008688304601F00EFE050038D004F10C00B8
:1079400000F0F2F8A8B3294630464EE0C17B8788A4
:10795000044601292BD1A846284601F0FBFD05006D
:1079600017D02F8000202872234843464A460168DA
:10797000C5F80A104068C5F80E0004F1100105F1C1
:107980000A0001F06AFE6872F08900280FD12946CA
:107990002AE0042013E0808801F0DCFD040006D01A
:1079A0006068FFF7B3FA08B105F06CF92580BDE80F
:1079B000F087FFE76868FFF7A9FA0028F7D0BDE86D
:1079C000F04705F05FB987880646384601F0C2FDEA
:1079D0000400ECD02B464A4606F1080104F10A00E7
:1079E00001F03BFE607221463846BDE8F04700F0EA
:1079F00013BD0000682600203C2200202DE9F04F36
:107A00000746858802883D48012197B08346102AA1
:107A100009D0112A49D01A2A6CD1387AB1EB101F3B
:107A200045D2012244E0354C083CA068C0430B908D
:107A300061680BA802F04CFA0B990CA800F088FCC6
:107A40002C220CA96846FEF711FD0026E946A04647
:107A500010E000BF09EB46005FF00004B0F804A09E
:107A600008EB84005146001D02F006FA641C1D2C30
:107A7000F6D3761C0098B042ECD8142D05D317B07D
:107A80000420BDE8F04FFFF7B5B92946584602F08B
:107A900009FA294608F1040002F004FAF87B0128EB
:107AA00028D016482946001D15E029461AE0002274
:107AB0000221B1EB101F01D2012600E000260F4980
:107AC000083901F11000041D294682B102F0EAF9DB
:107AD00036B12946204617B0BDE8F04F02F0E2B9B2
:107AE0002946204617B0BDE8F04F02F0C5B902F0B4
:107AF000C3F9F5E717B0BDE8F08F00008C26002031
:107B000010B504460748007800280AD0204601F046
:107B100089FB204605F0C4F92046BDE8104001F07D
:107B200055B910BD6C220020007800F001007047AC
:107B3000084908B5085C0090684602F007FFD0F8D5
:107B400010050099C84010F0010000D0012080F01D
:107B5000010008BD98DA02002DE9FC410646C00785
:107B60004FF000050ED0104F00240122385D009523
:107B700000231146019502F09FFE641C042CF4D3EF
:107B800000F04EF8B0070DD5074E0024361D002238
:107B9000305D032300951146019502F08DFE641CB3
:107BA000042CF4D3BDE8FC8194DA0200094908B53D
:107BB000085C0090684602F0C9FED0F80425009BDE
:107BC0000121994021EA0203C0F808351140C0F8AC
:107BD0000C1508BD94DA02000249085C012102F08C
:107BE000DCBE000094DA02000249085C002102F0C9
:107BF000D4BE000094DA0200084908B5085C009081
:107C0000684602F0A3FED0F804050099C84010F0C1
:107C1000010000D0012080F0010008BD94DA0200CC
:107C200010B500242046FFF7D7FF641C042CF9D3BD
:107C300010BD10B500242046FFF7D6FF641C042CAD
:107C4000F9D310BD10B50246064B4FF0FF300021AE
:107C50005C5C944201D1084610BD491C0429F7D34D
:107C600010BD000098DA020070B5094E0C004FF00C
:107C70000005306005D0012000F054F808B1022062
:107C80002070706810B9FEF7C6FF0546284670BD23
:107C9000342200202DE9F0470D468146FFF7D2FF40
:107CA0000446042836D2DFF874801B481C4EA8F125
:107CB0000C0725B3012D0ED0022D2BD104EB44006F
:107CC00030444578002D25D0B968002922D02846B7
:107CD000BDE8F047084704EB4401755C0E44717839
:107CE00049B10E4A4FF40041093A8068FFF7CAF8DB
:107CF00008B987F80390B17808F80410E2E78068C3
:107D0000FFF704F904EB4401314418F804008D78BE
:107D1000A842D7D0BDE8F0879CDA020030220020CC
:107D200008260020042801D2FFF702BF0020704778
:107D30002DE9F05F01463F48012700F5B27500F1DB
:107D4000B8043D4E90F8540040F604084FF0040982
:107D50004FF4967A44F2506B0A290AD00F292ED09C
:107D6000102949D0112962D174DFB078C043B070B6
:107D70002DE074DF3049091F0868401C0860C00707
:107D80002C484FF0AC0100F1B80003D0FEF787FBA0
:107D9000377003E0FEF783FB00203070A5F8008009
:107DA000AE60A5F80490656204F87C7F2348A06269
:107DB000C4E903AB11E000BFFFF71CF814E074DF67
:107DC0007078401CC0B270700A2800D977701948CA
:107DD000AC21B830FEF763FB1BE016491548B831FB
:107DE000FFF73CFA0028E7D101211248FFF733FAE8
:107DF000BDE8F05FFEF732BF74DF0E48AC21B8304B
:107E0000FEF74DFB7078401E10F0FF00707000D13F
:107E10007770A5F80080AE60A5F80490656284F8DC
:107E20007C700648C4F8A400C4E922ABD5E7BDE8DD
:107E3000F09F00001C24002014220020F5B802004E
:107E400070B50023042810D20D4D00EB4004012A28
:107E500002D101290CD00022094E00EB4000304431
:107E600061B1012906D0022906D00723184670BD4A
:107E70000E30C2B22A55F9E74270F7E78270F5E793
:107E800008260020044A014600201279D20702D0B9
:107E9000084600F04DB870472422002070B5064611
:107EA0001E480024C0E90161B00720D50025012249
:107EB00011462846FFF7C4FF6D1C0446042D02D26C
:107EC000002CF4D013E094B940F266620421144807
:107ED000FEF716FF04000AD1FEF700FF040006D1EA
:107EE0000F48104A0021001FFEF790FF0446F007DC
:107EF00012D00120FFF730FE74B909480A4A002168
:107F00000C38FEF783FF040006D10548074A01211B
:107F10000838FEF77BFF0446204670BD242200206F
:107F2000A8DA0200AD810200F1960200CB6C0200DB
:107F30002DE9F05F6A4C054600266078B34618B11B
:107F400084F801B001F0BCFB664F4FF47A694FF43E
:107F5000C87A4FF00108182D62D2DFE805F0AC0CAA
:107F60000C31404D62676B746B74BE7D7D7D7D7D91
:107F7000ACAFB2B5BEBE0020FFF73EFE00284FF00A
:107F8000000008D0FFF728FE022D02D14FF4E16077
:107F900008E0484606E0FFF727FE022D01D1C82081
:107FA00000E05046410CC0034FF4FA72801841F1D2
:107FB0000001257052000023FEF714FA01462AE062
:107FC0000020FFF719FE00284FF0000004D0FFF753
:107FD00003FE4FF44870E5E7FFF706FEDFE70020F9
:107FE000FFF70AFE00284FF0000002D0FFF7F4FD73
:107FF000CFE7FFF7F9FDD4E70020FFF7FDFD0028EC
:108000004FF0000002D0FFF7E7FD01E0FFF7ECFDC5
:10801000257041F69A1100223868FEF733FF0646B4
:1080200046E00020FFF7C2FD257008E0002051E087
:1080300025703DE084F801800120FFF7B7FD0022A4
:1080400040F6CD41E8E784F801800120FFF7AEFD5E
:1080500000224FF48041DFE77868FEF757FF0646BD
:10806000D5F1110000D02EB10220FFF7B5FD84F844
:1080700002B01DE0012816D980B2C8214843C117BB
:10808000C90341EA5041C0034FF4FA72801841F12C
:10809000000152000023FEF7A5F90146002278688E
:1080A000FEF7F0FE06460220FFF79EFD84F80280F0
:1080B0003046BDE8F09F01F003FBB9E701F000FB9B
:1080C000B4E701F0FDFA04E001F0FAFA0020FFF74E
:1080D0008BFD0120FFF788FDAAE7FFF7AAFDA7E7C0
:1080E000242200209CDA02002DE9F8430546861C74
:1080F00000208DF8000090460F464FF001096846B9
:10810000FEF714FF1B4C20683860D4E90001401AC8
:10811000A16804F21C47081A0EE00121384601F05C
:10812000D1FE01F083FC0146384601F0CBFED4E9D4
:108130000001401AA168081A401C8642EDD8B8F127
:10814000000F03D0052065F3891002E0062065F3D7
:108150009F50A2682168114004EB8101C86020682B
:10816000304420609DF80000FEF704FF4846BDE85B
:10817000F88300009C2D002030B482680468531CF2
:108180008360A154D0E901128A4202D330BC02F0CC
:1081900084B830BC70470000034803C8814201D155
:1081A00001207047002070479C2D0020007802219C
:1081B000FFF770BD05494FF0FF32082841F8202035
:1081C00002D3084480F85820704700006C29002032
:1081D000F0B54FF0FF3512B10023082601E0082367
:1081E0000C260C4C05E000BF54F823707F1C04D013
:1081F0005B1CB342F8D32846F0BD26185DB286F862
:10820000305044F82310002AF5D1E11881F85800C5
:10821000F1E700006C2900200249084490F9300081
:10822000704700006C29002070B504464FF6FF75BA
:108230000A462846AC4208D14FF4807421461046C5
:1082400004F00EF8A04209D070BDFF2CFCD82146E6
:10825000104603F0F8FF08B1204670BD284670BDF7
:1082600070B5084C050009D010342168002907D0EA
:1082700008682060496828468847F6E70834F4E72C
:1082800070BD000058290020054A012120B10128B5
:1082900005D19170FFF7E4BF51700020FAE77047F5
:1082A000582900202DE9F05F26484168F1B3DFF836
:1082B00098B00E688146DBF8004087688078E11B43
:1082C00021F07F45ED1CB0B9DFF880804FF480309D
:1082D000C8F84403C8F804031120FEF731FA11204E
:1082E000FEF739FA4FF0010AC8F800A02F2003F07A
:1082F000F7F989F802A0B54200D23546124BE819C9
:108300003C3320F07F401860DBF800105A46091B10
:1083100021F07F41001B20F07F40C91C81420FD912
:10832000106818602F2003F0DBF900E004E0BDE8DE
:10833000F05F1120FEF71ABABDE8F05F04F032BB1F
:10834000BDE8F09FD022002004150140001001403C
:1083500073B58CB00646002000900D9880B10024C3
:108360006D4621460DA801F092FD30B1009805EB55
:10837000400084800098401C0090641C142CF0D3B2
:108380002C2269463046FEF771F80EB070BD2DE91B
:10839000F04117880646B81D14460D46984202D98A
:1083A0000C20BDE8F0813188072206290AD34FF45A
:1083B000486C4FF6FF73614501D9994202D170882C
:1083C000062801D21046ECE7604501D99842F9D160
:1083D000994203D0984201D08142F3D80520E85554
:1083E00020881221401C80B2208029542088401C03
:1083F00080B220804119308805F06EF82188084449
:1084000080B220804119708805F066F82188084400
:1084100020800020C5E7000038B54A7A0F4B62B1D2
:1084200000220A725969002906D001228DF8002025
:10843000ADF802006846884738BD0A7A62B19B6889
:108440004C68024619462046FEF71CFD0028F3D072
:10845000BDE8384004F016BC5B68F1E768260020F0
:10846000F0B585B016460F4604461D4614220B494A
:108470006846FDF7FBFF0A488DF80870ADF802402A
:10848000ADF80A608DF80C50017800222046FFF705
:1084900013F9684600F032FA05B0F0BDB4DB020013
:1084A0007C220020F0B587B0074600200490ADF88C
:1084B00010100590ADF812100190029001AA04A9C5
:1084C000384690DF060022D003F0CCF8114C03466A
:1084D000012520883A4605EB00400F4902F0C9FC0F
:1084E000BDF8042012B9BDF8060038B12088BDF8E7
:1084F000063005EB004009A102F0BBFCBDF80820E6
:108500002AB12088154905EB004002F0ABFC07B00A
:108510003046F0BDC823002034DF020054686520D7
:108520007265717565737465642054582F525820B4
:108530007061636B6574206C656E67746820697325
:1085400020746F6F206C6F6E672062792025752F05
:108550002575206F63746574732E000080DF020040
:1085600030B5044685B000211B4803F06CFE00289E
:108570002FD00025204600F084FD68B1112812D0CC
:1085800086281BD0A0F54051023903D00146204671
:1085900004F080FB294607E005B029462046BDE8E7
:1085A000304001F021BA0121204601F01DFA05B04A
:1085B0000021BDE83040084803F079BE1422074985
:1085C0006846FDF753FFADF80240684600F072F9C7
:1085D000E0E705B030BD000045220020DCDA0200F3
:1085E0007FB50C4610B1012004B070BD2079002683
:1085F00038B141F61D5501281BD0022826D00F2086
:10860000F2E70220207102960396E0680190694625
:1086100001A804F025F950B102988188E180008812
:108620002081BDF80010029804F098F9DCE70A20D8
:10863000DAE70A4B6A460021A01D04F0CDF838B1F4
:10864000064918398E61CE610A28CDD12846CBE77C
:1086500002488188019804F081F9F5E71023002091
:108660002DE9F0470025DFF88C803CE060680021B0
:1086700000EBC506012032789146FDF7E4FED4E90F
:10868000062300EA020701EA030C57EA0C0728D088
:1086900082438B434846C4E9062303F0DFF832786F
:1086A0008246914601200021FDF7CDFED4E9042346
:1086B00000EA020401EA03074A4650460021FDF79A
:1086C000C2FE44404F403C430BD17078012801D09A
:1086D000012100E00021726881EA0A010AB14846DE
:1086E00090476D1CEDB298F8000044468542BDD31A
:1086F000BDE8F087B022002010B50021024801F04B
:10870000F7FB80F3100010BDB83100200E4910B502
:108710000A784C780023A24212D0521CD2B20A70BE
:10872000022A00D10B70084A0B780C3252F8232031
:1087300002608868104420F07F408860012010BDEE
:108740000360002010BD0000D022002013460A461E
:108750000021FFF785BE10B503780022072B06D253
:10876000DFE803F005040610202930000A7010BD70
:1087700001230B7003898B818388CB81C06888605B
:108780000A7410BD02220A7002898A818288CA8115
:10879000C2688A60807D062802D00020087410BD5F
:1087A0000120FBE703220A70C2888A810289CA81FC
:1087B000C068886010BD04230B70C0888881CA819E
:1087C0008A6010BD0520087010BD000070B5064D10
:1087D0000646002455F8241009B130468847641C29
:1087E000042CF7D370BD00001C2B002030B50446CC
:1087F000006887B00D46806800281FD018216846A1
:10880000FDF74DFE0195A0680590207910B1012873
:1088100010D107E001208DF8000020690290E06887
:10882000039005E002208DF80000E068000302904C
:1088300060690490206881686846884707B030BD49
:1088400070B586B015460C00064619D0112C17D00D
:10885000082C15D014216846FDF721FEADF8026002
:10886000304600F0E5FDADF804000D2C0AD0862C52
:108870001CD007208DF800000294684600F04CF8E8
:1088800006B070BD03208DF8000025B12878C00720
:1088900001D0012000E002208DF8080000208DF8B2
:1088A0000C0041F20110ADF80A00E6E706208DF851
:1088B0000000E2E710B50446408800F0B9FDA08052
:1088C000024801682046BDE8104008474C220020BD
:1088D0002DE9F04107460024064E074D05E000BF94
:1088E00056F8241038468847641CE8788442F7DB41
:1088F000BDE8F0810C2900206C22002010B5044650
:10890000408800F095FDA080024801682046BDE83F
:108910001040084788DB0200014909680847000049
:10892000DCDB020038B504460E480078A8B1A4F597
:108930007F40FF380FD0684603F02EFE78B1052146
:10894000017001210171C480684603F033FE03F019
:10895000E3FE002038BD042038BD022038BD0820C9
:1089600038BD00001823002038B5040014D0694633
:1089700003F076FFA0B1BDF8000000EB80010948CC
:1089800000EB8100C16849B1A17A39B1C168491EC3
:10899000C1600020A07238BD052038BD062038BD5A
:1089A0000A2038BDB82B00201FB501A9684603F086
:1089B00013FF04B010BD07B513460A4669460020F0
:1089C00003F00AFF0EBD07B513460A4600216846AC
:1089D00003F002FF0EBD20B119B10068086000204D
:1089E0007047052070470000F8B50D46040018D008
:1089F000BDB1694603F034FFA8B1BDF800000B49D2
:108A000000EB800001EB800001210C30666801F072
:108A100059FA2E6060680C3068600120A072002056
:108A2000F8BD0520F8BD0A20F8BD0000B82B0020D5
:108A300018B10323002204F005BF0520704702236C
:108A4000002204F0FFBE12B1022304F0FBBE052099
:108A50007047000038B5044609480D46007858B103
:108A600064B16946284604F0E7FF002803D1BDF849
:108A700000102180658038BD022038BD052038BD3A
:108A80001823002010B504460E48007898B1A4B110
:108A90002188022913D80C4A01EB810002EB8002E5
:108AA00060885289C31C934209D804F0B9FF0020A2
:108AB0002080608010BD022010BD052010BD042064
:108AC00010BD000018230020B82B002070B50D4603
:108AD0000446B0F89810D0F894000122FEF78FFBFE
:108AE00000B1057004F13C0204F1940104F154005A
:108AF00072DF70BD70B51346002206461546862902
:108B000002D0112902D002E0012200E001250D4C23
:108B100073B1A179FEF7D0FD2A4661793046FEF7A0
:108B2000CBFD0022A1783046FEF7C6FD002203E00F
:108B3000A178FEF7C1FD2A4661783046BDE8704055
:108B4000FEF7BABD84220020F7B517460E0011D0FB
:108B50000098002560B100242146684601F097F98D
:108B600018B1A0B23946B0476D1C641C142CF3D365
:108B70002846FEBD0020FEBD406803F02DBD00006C
:108B80000EB516A19DF8080020F00F00401C20F043
:108B9000F00010308DF808000F2202A87CDF08B129
:108BA000FEF728F940F2C33078DF08B1FEF722F96A
:108BB0000020009001905021ADF80400ADF80010A5
:108BC0004FF4C870A021ADF80600ADF80210684659
:108BD0007ADF002801D0FEF70DF90EBD4E6F7264EA
:108BE00069635F54656D706C6174650070B508B140
:108BF000012070BD194C0025207B08B1257301E0D0
:108C000000F0A0F82078082826D2DFE800F025043C
:108C1000080C10251420BDE8704000F021B8BDE814
:108C2000704000F07DB8BDE8704000F05FB8BDE86E
:108C3000704000F03BB86088084900EB800028399C
:108C400001EB80004068BDE8704002F02DBF656018
:108C5000BDE8704002F036BF0F2070BDE02B002051
:108C60001149F0B48A1C00200346A1F128050C1814
:108C7000A67A4EB1A37200EB800405EB8404E6688B
:108C800016B9247C012C0AD0401C80B20228EED3F5
:108C90000B704B804B60F0BC41F61D50704710804C
:108CA000F0BC00F03DB80000E02B00200C484188EB
:108CB00001EB8102A0F1280101EB8201CA6852B1E7
:108CC00005210170074802218180016800230122EB
:108CD000054801F0DBBB042202704968F6E700009A
:108CE000E02B002020230020B423002038B50A49BF
:108CF000084803240B684268898803EB8101538884
:108D00000470DB1C00201B0400909B0B034801F047
:108D1000E9FC38BDE02B002020230020B4230020F4
:108D2000074910B54888091D03F0EAFD18B1BDE8F0
:108D30001040FFF7DBBFBDE81040FFF7B7BF0000F2
:108D4000E02B0020F0B51F481F49012506780224BA
:108D50008B88A0F12802082E19D2DFE806F004184B
:108D6000181B222F2F170189491C018100214180E6
:108D700080F80C1001EB810312F8233043B100237B
:108D80004418491C89B2A3720229F3D30570F0BDBF
:108D90000123F5E742685288D21C1A448A80047085
:108DA000F0BD46880D6806EB860602EB8602566823
:108DB0000E60556013818C80062100E00721017050
:108DC000F0BD0000E02B00202023002030B50188FA
:108DD0008488224D85B0502924D0522902D05429AC
:108DE00031D103E0204600F0CBFD2CE014221C49D9
:108DF0006846FDF73BFBADF80240204600F018FB4B
:108E0000ADF8040000F0FAF8002269792046FEF778
:108E100053FC002229792046FEF74EFC6846FFF7F6
:108E200049FD10E0017B01290DD1817A01290AD188
:108E30000089A0F52451023905D10121204600F016
:108E4000D3FD04F0A9FB00220649E878FEF7F4FB05
:108E500005B0BDE8304003F06DBF000044220020A3
:108E600004DB0200A96F020010B504460078002858
:108E70000FD1608800F084FD608800F04FF9002871
:108E800007D00449608801220979BDE81040FEF747
:108E900013BC10BD442200207CB50446007808288D
:108EA0002FD1607A38BB207A4FF6FF7501280DD09C
:108EB000072802D0082824D11EE0A08800F016FA66
:108EC000A8421ED0012100F08FFD1AE0A0886A465A
:108ED000012102F07DFE70B90198007858B1A08898
:108EE00000F004FAA8420CD0084901220979FEF7E3
:108EF000E3FB03F01FFF04E004480021401C03F0E3
:108F0000D6F9BDE87C4004F047BB000044220020B5
:108F100010B504460A4841782046FEF7B5FB68B113
:108F20000848002101EB410200EB82025288A24274
:108F300001D1C8B210BD491C1429F3D3FF2010BDC4
:108F400056220020FC26002070B5094D094E002451
:108F500004EB440005EB800071784088FEF794FB39
:108F600020B1641C142CF3D3FF2070BDE0B270BD9F
:108F7000FC260020562200202DE9F04180460246C2
:108F800001200021FDF75FFA1A4F05460E4678686A
:108F9000FDF7BCFF00280CD1174CD4E90621104680
:108FA0002A4001EA06031A4305D0A843B143C4E9A5
:108FB0000601BDE8F081404602F050FC30B1D4E932
:108FC000040128433143C4E9040105E0D4E9041055
:108FD000A943B043C4E90410D4E90601284331434E
:108FE000C4E90601A1687868BDE8F0410022FDF7F8
:108FF00049BF0000E8DB0200B02200201CB5054A92
:10900000D2E90212CDE900120022694602F005FE03
:109010001CBD00001CDB02002DE9FC41804600F075
:1090200007FA002403250127A0F57F412646FF39D2
:1090300008D06A46082102F0CBFD18B90198841DBA
:109040008688056832462B4621464046B1DF042813
:1090500004D0082804D00B2808D002E0112000E03A
:109060000020002F00D10B20BDE8FC810027A807BD
:1090700001D50125E6E73443F5D000242646032533
:10908000E0E72DE9FC41804600F0D2F90646A0F564
:109090007F40FF380ED001252A466D1C0027ADB257
:1090A0006B460821304602F0BDFD040006D0072CB7
:1090B00025D025E043F20200BDE8FC81019903239D
:1090C0000A1D0B604046891DB2DF040004D00C2C41
:1090D00009D0052C09D009E032460821104602F0DB
:1090E00017FE04460CE0012700E00024082130466A
:1090F00002F0FAFD00B10324002FCDD100E00C24D2
:109100002046D9E704488088A0F57F41FF3901D087
:1091100003F01ABE70470000502200200EB502A9CD
:10912000019100F085F96A46012102F051FD08B174
:1091300000200EBD019800780EBD00002DE9F04121
:1091400007464FF6FF760A48B3DF10B10320BDE8AB
:10915000F081074C43F20305A41E3246618838466D
:10916000AFDFA842F3D16088401C6080F5E70000C3
:1091700052220020428800EB82020C328A4201D93E
:10918000022070478188A1F57F42FF3A03D0008812
:1091900008B10020704701207047884204D200685F
:1091A000401C01D001207047002070473EB5027876
:1091B00002230C46B3EB520F17D1B0F80110ADF8F3
:1091C0000010C1788DF802108188ADF80410807904
:1091D0008DF8060002AA01A92046FDF74DFD0322E5
:1091E00002A96846FDF76DF908B100203EBD0120D7
:1091F0003EBD000010B50C46FFF78AFEFF280CD0DC
:10920000074900EB400001EB8000416821600189C3
:10921000A180807AA071002010BD052010BD000043
:10922000FC26002070B5018890B0102959D1011D8D
:109230002C226846FDF71AF99DF804004FF6FF76D8
:10924000032134466D46B1EB500F2AD002F0E0FD09
:109250009DF8040040080ED001280CD0022820D12F
:1092600018E00D99281D1131FDF7B0FC18B100BFB1
:10927000BDF82C4015E00CAA0BA9072002F09CFDBC
:109280000028EED10DE00D99281D491CFFF78EFF37
:109290000028EDD10CAA0BA9072002F08DFD0028B3
:1092A000F1D1BDF80000291D00F06CFDB44218D0CA
:1092B000BDF80000214600F0A5F8BDF80000ADF8AB
:1092C0002E000020ADF83040074E8DF82C000BAD7D
:1092D000044600BF56F8241028468847641C022C18
:1092E000F8D310B070BD000030DB0200094A002145
:1092F00001EB410332F82330834205D101EB4100F9
:1093000002EB800040887047491C1429F0D34FF6C7
:10931000FF707047FC2600203EB50C46054602F063
:1093200077FD0BE0BDF80000A04207D02846029967
:1093300000F00EF810B1BDF800003EBD01AA69466C
:10934000072002F039FD0028ECD14FF6FF703EBD3A
:109350002DE9F0410C46054600F1110701F1110617
:109360001022491C401CFDF7ACF848B9681C00F0FD
:1093700096F928B1601C00F092F908B1012400E0D0
:10938000002431463846FDF721FC3B780222B2EB3F
:10939000530F0CD00321B1EB530F08D03378B2EB4D
:1093A000530F04D0B1EB530F01D0012100E0002195
:1093B000084201D18C4302D00120BDE8F081002099
:1093C000FBE7018811B9421892780AB10120704771
:1093D000491C0829F7D30020704710B50C460346F6
:1093E000FFF7EFFF00280AD018882188884205D1AE
:1093F0000822A11C981CFDF764F808B1002010BDDC
:10940000012010BD02F090BE70B50446FFF76EFF5C
:109410000546204602F0DFFB4FF6FF7104468D4201
:1094200003D014B9284602F07FFE204670BD00002C
:1094300010B5FFF76DFDFF2805D0044900EB400093
:1094400031F8200010BD4FF6FF7010BDFC26002043
:109450003EB5044602F0DCFC0EE0019920464631A0
:10946000FFF7BBFF28B9019920462A31FFF7B5FF66
:1094700010B1BDF808003EBD6A4602A9072002F0FF
:109480009BFC0028E9D14FF6FF703EBD2DE9F0416D
:109490002D4F002518B17D600120BDE8F0810879CD
:1094A000012258B1294E01280CD0274C4FF0020858
:1094B0000834022821D0032842D128E00A7102F0A2
:1094C00001FB3BE05FF0000000EB800116F821108B
:1094D000022908D0401C80B20228F5D33A707D6082
:1094E00041F61D50D9E700EB800006F8205006EB4E
:1094F0008000406802F0D8FA20E00D71A4F80480E2
:10950000002301221248216800F0C0FF16E00D710F
:10951000206802F0C9FA0D4923682831498801EB17
:10952000810206EB8201D1F804C0C4F800C04B6090
:10953000A3880B81A4F8048006F822500028ACD040
:109540007D600E20A9E7000018230020B82B002022
:10955000B42300200146034802888A4200D000203C
:1095600070470000542600202DE9FC5F0E00834662
:10957000DDE90C47C6F1000098469246814600D4CA
:109580000846012503E000BF90FBFAF06D1C504532
:10959000FADAA84500D9454624B1002E01DB780748
:1095A00000D5641EB80702D5B8F1000F0AD0F8073D
:1095B00008D13CB1A54205D220215846641EFEF7D1
:1095C000DBFDF6E7002E02DA4E462D2102E0780799
:1095D00003D52B215846FEF7CFFD07F003000228E4
:1095E0000BD1B8F1000F08D13CB1A54205D2302112
:1095F0005846641EFEF7C0FDF6E7CDE90047434636
:1096000052463146584603F06DFFBDE8FC9F0246C6
:1096100000201268930702D0530702D47047500706
:1096200014D502F00300012802D002280CD105E075
:10963000C2F383100B68801C184404E002230868FE
:1096400003EB92521044086001207047086800EB59
:109650009253C2F38910401CEEE7F0B58488A51838
:10966000944200D82246A41AC288D6189A4200D83A
:109670001346D21A4B880788BB420CD340888342DA
:1096800009D88888A04206D3A84204D8C888904246
:1096900001D3B04201D90020F0BD0120F0BD00216E
:1096A000425C0AB101207047491C1029F8D3002000
:1096B0007047800701D000207047012070470000EC
:1096C0000A4810B5807860B1002401E0022C06D071
:1096D0002046FEF781FA641C042CF7D310BD032446
:1096E000F6E7BDE81040FEF79BBA000024220020F8
:1096F00003480179C90702D00078FEF719BC70470A
:109700002422002017210180418000210171417134
:109710001B218171C17170472DE9FE4F2B4D984679
:1097200091460F00824601D000260DE0684600F009
:1097300055FB6A460021504602F0DFF92878009E6A
:1097400010B99DF8090098B14A463146504603F0D9
:109750008DFC0446014600225046FFF7CBF90D2C44
:1097600032D008DC84B3082C2ED00B2C0BD12BE08C
:109770000520BDE8FE8F112C10D0862C1AD0A4F540
:109780004050023820D00325B8F1000F04D03246F3
:1097900021465046FFF754F82846EAE73A46297929
:1097A0005046FDF789FF4A46E9785046FDF784FFA9
:1097B0000025E9E73A4629795046FDF77DFF4A46FC
:1097C000E9785046FDF778FF2546DDE78422002042
:1097D0002DE9F041204F0E46154604463978FDF735
:1097E00053FF002835D0204602F07EF950B32046C2
:1097F000FFF71EFE80462046B978FDF745FF08B109
:10980000012700E00227204602F0BAFB002840466C
:1098100002D0FFF7F9FD0DE0A8F57F41FF3909D02F
:10982000072102F061FA010004D0052902D0204688
:1098300003F044FA2B46324639462046BDE8F04153
:10984000FEF70EBE2A4631462046BDE8F041FEF73F
:109850007DBFBDE8F08100007C22002070B5094D7D
:109860000646E978FDF710FF044629793046FDF7F2
:109870000BFF014622463046BDE870400123FFF74A
:109880004BBF0000842200202DE9F047394E00270D
:1098900080463D46DFF8E090D6F804A057E003D0BC
:1098A0000446D0F81C8035E099F8002002EB420114
:1098B000521CD2B289F8002009EBC10199F802309C
:1098C000091D9A4201D189F8005048680A78044677
:1098D000012A12D0022A02D0032A3BD108E003F069
:1098E0006DFD00B10127257434E00574C06900E006
:1098F00070680028F9D170602CE0207C50BB88682B
:109900006060C868A0600869E0604869A061F0789C
:1099100000B165606268B168184B501A20F07F4052
:10992000984202D2A168084406E0881AA16820F093
:109930007F40814202D9081A206000E025606560FE
:109940000120A56020742046E56103F019FDB8F1FF
:109950000000A4D199F8001099F801008142A3D128
:1099600017B97168514502D00120BDE8F087002089
:10997000FBE70000D0220020F8290020FFFF7F0035
:1099800030B585B00546002414216846FCF787FDF4
:10999000A5F57F40ADF80250FF3815D02846FFF7F7
:1099A0003BFB98B10B2815D0112811D0A0F54051E0
:1099B000023903D00146284603F06CF909482246D3
:1099C000C1782846FDF778FE05B030BD0E2002E0D4
:1099D0000124F3E70F208DF800006846FEF76AFFC8
:1099E000ECE70000442200200A4602498978FDF78E
:1099F00063BE000044220020F8B5054600780C46FE
:109A0000002620420FD100208DF800006846FDF7A7
:109A10008DFA2878204202D12043287001269DF833
:109A20000000FDF7A7FA3046F8BD00002DE9FF4120
:109A30000026234800F043FA2148001F074600F0A3
:109A40003EFA204C60680090A56800E000986946E6
:109A5000284004EB80000C30FFF7D9FD0028F5D139
:109A600001AA009901EA050304EB8303491CDB68A2
:109A700042F82030401C00910228F2D3019800F0F7
:109A8000030001280BD0022810D10198032101EB1B
:109A900090500099BDF80A6001EB900005E0019834
:109AA000BDF80A60C0F3831008440090384600F007
:109AB00003FA08B10098606004B03046BDE8F08158
:109AC000B43100209C2D0020ACB04FF400410020A8
:109AD00001F036FA08B1FDF78DF901F04DF8FDF708
:109AE000A7F908B1FDF786F937490320FEF7D6F943
:109AF00008B1FDF77FF969460020FEF7B5F808B117
:109B0000FDF778F901F03AFB08B1FDF773F901F0C0
:109B1000E7FC08B1FDF76EF90024694601200094C6
:109B200001F06CFB08B1FDF765F9684601F0EAFB4E
:109B300008B1FDF75FF9FFF723F80021234800F093
:109B40004CFA08B1FDF756F9AC216846FCF7A7FCC2
:109B500002208DF800001E480590ADF810404FF42B
:109B60009670229044F25060012523908DF87C502D
:109B700018482990154869461430FDF76FFB08B165
:109B8000FDF738F9114801211430FDF764FBFDF7AA
:109B900065F81148A022017842805022828021F08D
:109BA0001801C480457041F0040101700849091D85
:109BB0008ADF08B1FDF71EF900F0ECFF0028FBD1A9
:109BC00001F0F0FAF8E70000317D020008240020DF
:109BD00018220020F5B802008C25002070B514462C
:109BE00082880E4605462088111D0144921C994228
:109BF00001D8FE2A01D90C2070BD521C3254208895
:109C0000FF21401C80B2208031542088401C80B24B
:109C100020808119288803F05FFC2188084480B2E5
:109C20002080AA8842B1A96841B13044FCF71EFCEB
:109C30002088A98808442080002070BD072070BDBE
:109C40002DE9F047C7880446181D16468946B0FB23
:109C5000F7F1B0FBF7F207FB12009A193A44D21C55
:109C6000B2FBF7F2DDF820A001E02468491E0029CC
:109C7000FBD13D1A8846B54216D818E0BAF1000F5C
:109C800005D0211809EB08002A46091D04E02044EC
:109C900009EB08012A46001DFCF7E8FB00202468B8
:109CA000761BA844B74201D9354600E03D46002E58
:109CB000E4D1BDE8F087000030B5024659B101F0AB
:109CC0006BF90021074C09E004EB810315685B8800
:109CD000AB4202D11160002030BD491C8142F3D358
:109CE000052030BDC8230020F8B50F460178144682
:109CF0000546012901D1687830B12088821C9A423A
:109D00002DD8012902D006E00720F8BD697801446A
:109D1000891C994223D8181A801E86B2ADF80060BB
:109D20002188B81C084469467DDF0028EDD12878D9
:109D3000022805D1BDF80010B14201D809210AE07E
:109D40000821012805D16878B04202D8ADF800009A
:109D500001E0ADF80060BDF80000FE2801D90C203C
:109D6000F8BD2288401CB8542088401C80B2208056
:109D700039542088401C2080BDF800100844208001
:109D80000020F8BD70B505460C004FF0FF0020D054
:109D90004FF6FF76B5421CD00E4801224178284686
:109DA000FDF78AFC2846FFF7B3F8FF2803D1FFF739
:109DB000CBF8FF280DD0084B00EB400203EB8201EB
:109DC0004D8023F8226022684A60A2880A81A27925
:109DD0008A7270BD56220020FC260020034A002112
:109DE0009268C0E900218160704700008422002051
:109DF00070B54FF6FF750E46A84201D1002000E075
:109E0000401C84B208E02146304602F044FA08B112
:109E1000204670BD641CA4B2FF2CF4D9284670BD46
:109E200070B50C460546FCF7F5F9002802D02188EC
:109E30002868084470BD10B50A8849888A4203D151
:109E4000FCF72AFA012010BD002010BD70B50C46A9
:109E50000546FCF704FA002802D061882868084407
:109E600070BD10B50A8849888A4203D1FCF7EEF923
:109E7000012010BD002010BD01F01F0301229A40F7
:109E8000D243490900EB8100114600F021B84A098C
:109E900050F8220001F01F0201219140084000D03B
:109EA0000120704701F01F0301229A40490900EB8D
:109EB0008100114600F021B8002100F014B8012102
:109EC00000F01BB808B56A46FCF73BFA009808BDDD
:109ED00008B56A46FCF71BFA009808BD08B56A4643
:109EE000FCF72FFA08BD08B56A46FCF710FA08BD62
:109EF00008B56A46FCF7F2F908BD08B56A46FCF7F2
:109F0000F9F9009808BD08B56A46FCF727FA0098E9
:109F100008BD38B5044600258DF800506846FDF7A9
:109F200005F821686268086890420ED9401E0860F2
:109F30000178A38AE26801FB0325227A2168101ABE
:109F4000C0B20A79824200D208719DF80000FDF784
:109F500011F8284638BD38B5054600208DF80000B8
:109F60000C466846FCF7E2FFE868A98A201AB0FBB5
:109F7000F1F12A681068431C136001709DF800001D
:109F8000FCF7F8FF38BD10B530B1017A42680368BC
:109F9000891AC9B21A6006E00E2010BD03681A685B
:109FA000541C1C601170491EC9B2F7D20068002110
:109FB0000171084610BDC20800F007030120895C4A
:109FC00098400840704710B5C20800F00703885C4D
:109FD00001249C402043885410BD10B560B101613C
:109FE000172120F8021B20F8021B1B2100F8021B7E
:109FF000FFF788FB002010BD0E2010BDF0B585884E
:10A0000093B00C46002D39D1018800263E4F2429FB
:10A010003BD006DC102909D011290CD0232958D1B6
:10A020004FE03A290BD0552953D129E0014620466B
:10A0300001F08AFC4DE0A01DFFF764FB49E02246D9
:10A04000408934F8061F814200D8084660801728EE
:10A0500000D217206080106970B1607960B1D7E9D3
:10A060000001CDE90301ADF80E506088ADF8100095
:10A07000136903A9104698476671267113B0F0BDA5
:10A080000146204601F0B0FC23E0011D2C2206A869
:10A09000FCF7ECF9BDF81800BDF81C2004EBC0017A
:10A0A0004A732269AAB1D7E90423CDE90423ADF8A4
:10A0B0001200487B8DF814002269204604A99047BD
:10A0C00007E0017A207B884200D201462846FEF74D
:10A0D000E9F9A07A0028D1D0E1882846A5DF01253A
:10A0E00070B11128CAD001F0BDFA0246074808A194
:10A0F000008813B005EB0040BDE8F04000F0B2BEB0
:10A10000A672E572BAE7000038DB0200C82300201F
:10A1100073645F626C655F67617474635F657863C5
:10A1200068616E67655F6D74755F72657175657383
:10A130007428292072657475726E65642025732EEB
:10A14000000000007FB5054600294DD0002D4BD002
:10A1500008780C46DE2847D1A8886188884202D159
:10A16000204603F035FA2888012825D002283BD064
:10A1700011283AD0512837D135F8040F6188884228
:10A1800032D1A978A81C02292ED1017A042903D042
:10A19000062901D0052927D10021009102228DF83E
:10A1A000002001914FF4C07202910391ADF8042098
:10A1B000007A05280FD010E0297A2046012913D112
:10A1C000A988428891420FD10121017204B0BDE8F3
:10A1D000704003F0FDB9ADF8041028886946B0DF7F
:10A1E000002801D0616888477FBDA88861888842BF
:10A1F000FAD14FF6FF7060807FBD00F180400068AB
:10A20000002800D00120704708B500F180400021EF
:10A2100001600068009008BD70B50B4C207808B153
:10A2200085250FE00020A06060602061E0600748A5
:10A2300001F038FA054601F09FF908B901F01CFA5F
:10A2400001202070284670BD582900208982020014
:10A2500038B500258DF800506846FCF767FE074CBE
:10A26000E068401EE060E06810B901F02BFAA570CC
:10A270009DF80000FCF77EFE38BD00005829002044
:10A280000FB408B50399002904D004AA00926A46C5
:10A2900000F00FF801B05DF814FB10B582680446B9
:10A2A000002A05D0D4E90403216898470020A06063
:10A2B00010BD2DE9FC4791460C00804676D014F87D
:10A2C000011B39B125290ED04046FDF755FF2078F6
:10A2D0000028F4D198F80C00002867D04046BDE86B
:10A2E000FC47FFF7DABF0020012221782B291BD081
:10A2F0002D2902D0302908D102E040F0010001E010
:10A3000040F00200641C002AEFD100252A290ED05B
:10A310002178A1F130020A2A11D205EB850201EB66
:10A320004205641C303DF1E740F00400EAE7D9F84B
:10A3300000100B1DC9F800300968641C0D44217819
:10A3400000232E290BD114F8011FA1F130020A2A93
:10A3500005D203EB830201EB4203303BF3E76C29A8
:10A360000DD068290BD0692921D00BDC252918D004
:10A37000582931D063290ED0642915D117E014F87B
:10A38000011FECE7702969D0732932D075291BD0E1
:10A39000782909D120E0D9F80000011DC9F8001082
:10A3A00001784046FDF7E8FE641C90E76CE0D9F8C0
:10A3B00000100A1DC9F800200968CDE900500A22E2
:10A3C0004046FFF7D1F8EFE7D9F800100A1DC9F8A9
:10A3D000002009680A2206E0D9F800100A1DC9F811
:10A3E000002009681022CDE90050404603F07AF8B9
:10A3F000DAE7D9F8001000270A1DC9F800200E6816
:10A40000C00705D112E04046761C7F1CFDF7B4FE64
:10A4100031780029F7D104E0202140466D1EFDF778
:10A42000ABFEBD42C0D9002DF6D1BDE74EB13046DE
:10A43000FCF740F8074604E0202140466D1EFDF77A
:10A440009BFEBD4206D9002DF6D103E04046761CA6
:10A45000FDF792FE31780029F8D1A5E7D9F8000080
:10A46000011DC9F80010056830214046FDF784FE43
:10A4700078214046FDF780FE08200021CDE900014B
:10A48000034610222946B0E7BDE8FC872DE9F84FC6
:10A490002B4E04009A4630884FF00103154689463A
:10A4A00003EB004024D0216800292BD0002D32D0AE
:10A4B000626849464FF010071268A2F1010C1CEACD
:10A4C000090F11D198466A432046FCF798FB0028F3
:10A4D0002AD0206853462A46066901B049462046DC
:10A4E000B446BDE8F04F6047164B17A2009721E035
:10A4F0000E210091134B1EA21FA100F0C2FC0E20E2
:10A50000BDE8F88F082100910E4B26A21AA100F099
:10A51000B8FC0820F4E7092100910A4B24A216A1F7
:10A5200000F0AFFC0920EBE700973188054B214A8A
:10A5300008EB014010A100F0A4FC1020E0E70000AF
:10A54000E82300206BDC0200616464725F69735F62
:10A55000706167655F616C69676E656428705F66CE
:10A56000732C20706167655F61646472290000006C
:10A57000705F667300000000257320636865636B7D
:10A58000206661696C656420696E20257328292026
:10A59000776974682076616C756520307825782E2F
:10A5A00000000000705F66732D3E705F617069008F
:10A5B0006C656E00D8DF02002DE9F04128B101681A
:10A5C00019B1C969BDE8F04108470D4D0D48002497
:10A5D000461B14270DE000BF04EB840005EB800050
:10A5E000016829B1C969884710B10120BDE8F0812F
:10A5F000641CB6FBF7F0A042EED80020F6E700009E
:10A60000B4230020C8230020044801214174007AAB
:10A6100008B1002070470120704700007C2C00200A
:10A62000012801D0032808D10449002201284A74D6
:10A6300000D00020087402F01FB870477C2C002066
:10A6400070B50246022801D0032A45D1234C207A56
:10A65000002841D0012833D0022831D120480023DE
:10A66000022A006802D0032A2AD11BE0E3600179A4
:10A6700011B1012924D10DE0D0E90565711B4FF41A
:10A680008056B14200D33146294481614569A942CF
:10A690000ED015E00169491C0161426991420FD158
:10A6A000237213E0E168491CE160082908D9E360DE
:10A6B0002372022A0AD00D21FEF798F801F082FFDA
:10A6C000607C28B1BDE8704000F05CBF0021F3E77A
:10A6D000BDE8704001F0D0BF70BD00007C2C0020B0
:10A6E0003C2300202DE9F84F3A4D04008B46288882
:10A6F0004FF00106DDF828A0984691464FF00E0174
:10A7000006EB00401AD0B9F1000F1BD021680029D8
:10A7100020D00921B8F1000F25D062685368B8FB3A
:10A72000F3F703FB1782002A21D02B4B2BA20091B9
:10A7300035A100F0A6FB0920BDE8F88F264B3DA20D
:10A74000009102E0244B3DA200912FA100F099FB63
:10A750000E20F1E7082100911F4B3AA22AA100F038
:10A7600090FB0820E8E71C4B39A20091E0E758462F
:10A77000FCF73FFA102798B14846FCF73AFAB0B117
:10A78000424659462046FCF73AFAB8B1CDF800A047
:10A79000206843464A46C56859462046A847CBE745
:10A7A000009728880C4B06EB00402AA20CE000978B
:10A7B0002888094B06EB00402CA205E0009728886A
:10A7C000054B06EB004032A20FA100F05AFB10200F
:10A7D000B2E70000E823002058DC020021286C6565
:10A7E0006E202520705F66732D3E705F666C61730E
:10A7F000685F696E666F2D3E70726F6772616D5F24
:10A80000756E697429000000257320636865636BA9
:10A81000206661696C656420696E20257328292093
:10A82000776974682076616C756520307825782E9C
:10A8300000000000705F667300000000705F7372BC
:10A8400063000000705F66732D3E705F6170690089
:10A850006C656E00616464725F69735F616C6967E7
:10A860006E656433322864657374290061646472B0
:10A870005F69735F616C69676E6564333228287540
:10A88000696E7433325F7429705F737263290000DC
:10A89000616464725F69735F77697468696E5F622F
:10A8A0006F756E647328705F66732C2064657374B3
:10A8B0002C206C656E2900002DE9FF411C46DDE966
:10A8C0000A7815460E46684600F040F846EA45010B
:10A8D00041EA840141EA072242EA0841009A00EB7A
:10A8E0008200C0F80017BDE8FF812DE9FF411C463A
:10A8F000DDE90A7815460E46684600F035F846EA66
:10A90000450141EA840141EA072242EA0841009AEE
:10A9100000EB8200C0F80017BDE8FF8113B50C46BC
:10A92000684600F021F8009900EB8101D1F800277A
:10A9300022F44032C1F80027009900EB8100D0F8E2
:10A94000001741EA0441C0F800171CBD0168202926
:10A9500002D24FF0A040704701F01F010160014892
:10A9600070470000000300500168202902D24FF018
:10A97000A040704701F01F010160014870470000CE
:10A980000003005001B56846FFF7EEFFD0F8100550
:10A990000099C84000F0010008BD38B501240090BE
:10A9A000684631B1FFF7D2FF00998C40C0F80845E6
:10A9B00038BDFFF7CBFF00998C40C0F80C4538BD7F
:10A9C0001CB5094C0144D4E90034CDE900346C468F
:10A9D00006E000BF54F82030D3F81035401C08C200
:10A9E0008142F7D81CBD0000E0DB0200034908B536
:10A9F0000844002101600068009008BD006000402C
:10AA000002494058012800D00020704700600040F3
:10AA100030B5124B01460020D3F81044224609E01D
:10AA2000157A854205D1401C0A28F7DB4FF0FF302C
:10AA300030BD5268002AF3D1421CF9D00872D3F815
:10AA400010242AB152684A60D3F81024516030BDF6
:10AA50000022C3F810144A6030BD00009C2D002075
:10AA60007047FBF7DDBE704708B5034A00924023EC
:10AA7000024A00F005F808BDE5CC02009C2C00203D
:10AA8000F0B595B01C4615460F4608461A9E00F0D4
:10AA900053FB182109A8FBF702FD0E96CDE90954D6
:10AAA0000023082203A9384600F05BFB05980690B6
:10AAB000BDF81000ADF81C00BDF81200ADF81E0086
:10AAC00000208DF821000398082600F003000128DB
:10AAD00002D0022818D032E003983346850AC0F32A
:10AAE000C2008DF8200003980FA9C0F38314A200C0
:10AAF000384600F036FB09A8009006AB22460FA9A5
:10AB0000284600F075FA1AE00398840DC0F3C200DD
:10AB10008DF82000082C01D2254600E00825334698
:10AB20002A460FA9384600F01CFB2E44641B09ABD3
:10AB300006AA29460FA800F0ADF9002CEAD1384644
:10AB400000F000FB15B0F0BD0A4A012902EBC0007D
:10AB500007D0022907D0032907D0042907D00020F5
:10AB60007047022070470420704700797047407991
:10AB700070470000D4E6020010B5FFF772FF042111
:10AB80000348FFF745FF02490120487210BD00004D
:10AB9000502300202DE9F04F8DB0FDF7FDFA18B1DC
:10ABA00000200DB0BDE8F08F7A4C4FF0000BC4F8D8
:10ABB00018B4BFF34F8F60680290A568D84628404C
:10ABC00004EB800008E021680298814201D86160AE
:10ABD000E6E7284004EB80000C3002A9FEF717FDE1
:10ABE0000028F0D105AA029901EA050304EB8303CA
:10ABF000491CDB6842F82030401C02910228F2D345
:10AC0000059800F00300022802D001284ED0A9E0E8
:10AC100005985022810D8946B2EB905F00D85021F3
:10AC20000E4666F39F50059008315B4800F03BFAF2
:10AC3000070079D000F080FA4346082205A938467B
:10AC400000F095FA029908F1080A2940681A800074
:10AC5000001D864223D94F4D0C3530B1C2B204EBF2
:10AC60008101301A90460C3104E02946F2B20025E9
:10AC700090462846C6B25346384600F078FA0AEBAA
:10AC800008032DB1324629464FEA070000F06FFA5B
:10AC9000029909F1030001EB900002903BE004EB04
:10ACA00081015346324638460C31EFE70598C0F330
:10ACB0008310062800D30620059960F38911C1F39B
:10ACC0008310801C05918100334800F0ECF90700E7
:10ACD00048D000F031FA4346082205A9384600F072
:10ACE00046FA08F1080800260FE00298434600EAF9
:10ACF0000501401C04EB81010290042238460C310E
:10AD000000F035FA08F10408761C0598C0F38310AA
:10AD1000B042EAD847B1D4F81054D4F8180468B156
:10AD2000384600F00FFA2FE01CE0687A012804D1C1
:10AD30002A6828463946126890476D68002DF4D17C
:10AD4000384600F0FFF98DF800B06846FCF7EEF8E1
:10AD5000D4F8180408B9029860609DF80000FCF768
:10AD600009F911E0D4F8104404E02168204689680C
:10AD700088476468002CF8D108480221008801EB5C
:10AD8000004007A100F06AF8FDF706FA80F0010024
:10AD900007E700009C2D002054E70200F823002064
:10ADA0004261636B656E647320666C75736865647D
:10ADB000000000002DE9F84F8146DFF89C80D01C90
:10ADC00015468A46800800226946D8F80860FDF7D3
:10ADD0008BF9B8B3009CA01C0090D8F80810304044
:10ADE000091A8F003F1DBD4208EB800002D82A4699
:10ADF000514608E03A4651460C30FBF737FB1648FF
:10AE0000EA1B0AEB07010C30FBF730FB4FEA19474E
:10AE1000FDF772FC47EA0042601C304008EB8000FE
:10AE2000344008EB8401C260C8684FF6C07269F311
:10AE3000C500904365F39F5020F00300801C20F074
:10AE40000400C86098F8200402E000BFFFF7A2FEEB
:10AE50000028FBD1BDE8F88F9C2D002000231A4666
:10AE600002F008BA08B5012300926A4602F002FA1D
:10AE700008BD1CB5CDE9002302236A4602F0FAF9A9
:10AE80001CBD3EB5069C8DE81C0003236A4602F0FB
:10AE9000F1F93EBD2DE9F0470E4680461C4692462C
:10AEA00008293ED894F80C900020207319461046CB
:10AEB00001F026FB0025B54206D218F805201AA19C
:10AEC0002046FFF7DDF903E019A12046FFF7D8F986
:10AED0006D1C082DEFD317A12046FFF7D1F90025EF
:10AEE000B54210D218F80570FBF7BCFA0068C05DD7
:10AEF00010F03E0F01D03A4600E02E220EA120466F
:10AF0000FFF7BEF903E00DA12046FFF7B9F96D1C6C
:10AF1000082DE5D301222146504601F0D3FA84F8EA
:10AF20000C90BDE8F087000020253032780000004A
:10AF3000202020007C00000025630000200000008D
:10AF4000104810B5FF218160002101604160C0F808
:10AF50001814C0F8141480F820140B4800F0F0F80E
:10AF600000280DD109480A490A4B401AC10800209F
:10AF700003E000BF23F82000401C8842FAD30020E1
:10AF800010BD00009C2D002054E7020054E7020091
:10AF9000D4E60200C823002002480349401AC00832
:10AFA0007047000054E70200D4E6020013B568467B
:10AFB000FEF782FE08B100201CBD0248009950F83F
:10AFC00031001CBDD4E6020070B508480125D0F858
:10AFD000104480F8205405E06572216820464968D5
:10AFE00088476468002CF7D170BD00009C2D0020BC
:10AFF0002DE9FF4781460C9D00200C462F7B2873CE
:10B00000984616462946184601F07AFA072E42D28B
:10B01000DFE806F004090F161F2A360049462846C5
:10B02000FFF72EF937E0494628462268FFF728F94E
:10B0300031E0D4E9002349462846FFF721F92AE008
:10B04000A0680090D4E9002349462846FFF718F984
:10B0500021E0D4E90201CDE90001D4E90023494609
:10B060002846FFF70DF916E004F1080007C88DE83F
:10B070000700D4E9002349462846FFF701F90AE012
:10B0800004F108000FC88DE80F00D4E900234946F9
:10B090002846FFF7F5F800222946404601F012FA4B
:10B0A0002F73BDE8FF872DE9F041858A80462D1F6B
:10B0B0004819C01CB0FBF5F0C6B24046FEF729FFA8
:10B0C000041E19D00020207101206071E580002746
:10B0D0002546761EC4F800800BE04046FEF719FFB7
:10B0E00060B16179491C6171286005467F1CC0F818
:10B0F0000080B742F1D32046BDE8F081204600F041
:10B1000002F80020F8E72DE9F041457901466B1E71
:10B11000002201E00968521C9A42FBD30F680146E5
:10B12000002605E038460C68FEF715FF2146761C20
:10B13000AE42F7D3BDE8F0810121001DFEF7C2BE8B
:10B14000FEF721BF10B504460121001DFEF7DBFE0E
:10B1500010F0FF0F04D12046BDE81040FFF7D3BF29
:10B1600010BD38B501240094FEF76AFD38BD38B52E
:10B1700000240094FEF764FD38BD0000064910B5B8
:10B1800000204870091D0860BFF35F8F0349044821
:10B1900000F024FA002010BD44230020A8DC0200A7
:10B1A000902C002008B500208DF800006846FBF7C1
:10B1B000BDFEF1EE100A20F09F00E1EE100ABFF391
:10B1C0005F8F08494020C1F880029DF80000FBF71E
:10B1D000D1FE00F0D1F908B141DF08BD20BF40BF6A
:10B1E00020BF08BD04E000E020B103490968016008
:10B1F000002070470E20704780DE0200FEB5024638
:10B200000E460846FFF7F0FF00286ED10024009498
:10B210000194012506208DF80020ADF80400029469
:10B220008DF8025069462020326869DF2F4F48B1FF
:10B2300000F018FA3988024605EB01432C491846FC
:10B24000FFF710FE00948DF801508DF80240019434
:10B2500002948DF8034069464020326869DF40B1AE
:10B2600000F000FA02463888224905EB0040FFF75B
:10B27000F9FD0094019402948DF800406946012084
:10B28000326869DF48B100F0EDF93988024605EB14
:10B29000014319491846FFF7E5FD4FF4B0600090EF
:10B2A000019402946946A120326869DF48B100F038
:10B2B000D9F93988024605EB014310491846FFF7D2
:10B2C000D1FD0094019402948DF800506946A020AD
:10B2D000326869DF40B100F0C5F902463888084994
:10B2E00005EB0040FFF7BEFD0020FEBD002400205E
:10B2F00070E50200B8E50200D0E402001CE502009F
:10B300007CE402002DE9F0410446D0F8008060DFC3
:10B310002168194D074641451CD92888022606EBAD
:10B32000004016A1FFF79AFD2888424606EB004030
:10B330001EA12368FFF79DFDF006D0F80C012168DF
:10B34000800200F10050421A288825A106EB004037
:10B35000FFF788FD012467B1384600F083F9024603
:10B3600028882AA104EB0040FFF77CFD3846BDE8A1
:10B37000F0812E480470F9E700240020496E7375AF
:10B380006666696369656E742052414D20616C6C1C
:10B390006F636174656420666F7220746865205302
:10B3A0006F66744465766963652E00004368616E5C
:10B3B0006765207468652052414D20737461727412
:10B3C000206C6F636174696F6E2066726F6D2030E0
:10B3D00078257820746F20307825782E00000000C2
:10B3E0004D6178696D756D2052414D2073697A65A4
:10B3F00020666F72206170706C69636174696F6E32
:10B4000020697320307825782E00000073645F6215
:10B410006C655F656E61626C652829207265747564
:10B42000726E65642025732E00000000AF2300209B
:10B4300030B5144891B00078002820D05FF0340572
:10B44000ADF8405010A903A861DF30B1052816D02F
:10B4500011B0BDE83040FBF7CDBC03AC0A496846EB
:10B4600000F0BCF807E000BFD0E90021204690477B
:10B47000684600F0CAF802980028E1D0F4E711B05D
:10B4800030BD0000AF23002084DE0200F8B5134C6D
:10B490002078C0B10120A07001F0DCFA112814D08E
:10B4A000022001F0EFFA00258DF800506846FBF706
:10B4B0003DFD11DF064625709DF80000FBF75AFDA3
:10B4C0002EB13046F8BD0820F8BD0020F8BDA570AB
:10B4D00001F088FE032001F0D5FAF6E7AC23002046
:10B4E0007CB5194C207808B108207CBD0120A070E3
:10B4F000002001F0AFFA112819D0002001F0C2FAA3
:10B5000012480026006801908DF800606846FBF73D
:10B510000DFD0F4901A810DF05000AD000202070A2
:10B520009DF80000FBF726FD2DB128467CBD0020CC
:10B530007CBD0120F3E7A670667001F06FFE01206C
:10B5400001F0A0FAF3E70000AC23002018DE0200AF
:10B55000796D02000EB50749684600F03FF805E036
:10B56000D0E900108847684600F04FF8029800289C
:10B57000F6D10EBD34DE02000148007870470000AD
:10B58000AC2300200548817819B1007818B1FFF785
:10B590007DBF08207047FFF7A3BF0000AC23002049
:10B5A0001FB568464BDF30B1052814D004B0BDE8A4
:10B5B0001040FBF71FBC084901A800F00FF806E097
:10B5C000D0E900210098904701A800F01EF80398E8
:10B5D0000028E6D0F4E71FBDA0DE02000160096884
:10B5E0004160AFF3008010B5D0E900215368994263
:10B5F00001D1002104E0D1E90034A34202D0194670
:10B60000816010BD08314160F0E7816800290BD0EE
:10B61000026892680A44826041684B689A4203D18A
:10B6200008314160FFF7DFBF704700000C4A10B5DA
:10B6300002F594730EE0991AC91001EBD17149100B
:10B6400002EBC1010C68844201D90B4602E005D22D
:10B6500001F108029A42EED3002010BD486810BDE7
:10B66000C8DC020000B5FFF7E1FF002800D1014867
:10B6700000BD0000B4DC020008480068012110F0A1
:10B68000010F08D14FF0E020E02280F80024C0F83C
:10B690008012C0F8001102480160704700E100E02C
:10B6A000180500400649024600200B790BB18520A1
:10B6B00070470A6001220A7100224A717047000037
:10B6C0009C22002004490120086004480168C1F35D
:10B6D00000410029FAD170470C00004018040040D6
:10B6E000002802D00149800108477047F1DB0200C1
:10B6F0002DE9F0410E46804600F030FD204D002837
:10B70000404616D0FCF788FD284490F85800800980
:10B71000032802D001280AD003E04046FFF732F99F
:10B7200028B103214046BDE8F041FFF7F7B80221F8
:10B73000F8E700F01FFD002820D04046FCF76CFD24
:10B740000446104F4FF4807007EB840100EB840037
:10B75000D1F8102580B242F00102C1F81025FFF7A0
:10B7600045F9002E0AD04046FCF756FD55F820005A
:10B77000002803D00120A040C7F80403BDE8F081F1
:10B780006C290020006000402DE9FC41DFF8C080FA
:10B79000044608EB0400002790F930001346C01758
:10B7A0000E46401C01D008274FE0B0781946C0F380
:10B7B00040022046FCF70CFD0546401C44D0B07802
:10B7C00041071CD4C0070DD068460094FFF7CCF8A1
:10B7D000009900EB8100D0F8001721F00201C0F8B9
:10B7E000001707E000217378204600910A46019176
:10B7F000FFF77BF8164920466431FEF7E4FBB0788A
:10B80000800718D51348317800EB8500D0F8102553
:10B81000114B1A40C0F810254FF47C524FF44033BE
:10B8200002EA042203EA01410A43D0F810150A4350
:10B83000C0F8102509E008EB0500327810F8581F11
:10B8400041EA8211017000E004273846BDE8FC811E
:10B850006C29002000600040FFC0FCFF10B5FFF71E
:10B8600091F8002800D0012010BD000070B5194DDE
:10B8700095F86A0008B1082070BD0020411E2A1802
:10B88000401CC0B282F830103028F8D30024204683
:10B89000FCF790FC641CE4B20C2CF8D30D49002496
:10B8A000E0204C66A1F868400B4981F800040126AD
:10B8B0004020891FC1F88002C1F800014FF4BE701A
:10B8C000FFF794F80549F007C1F8040385F86A60AA
:10B8D000204670BD6C29002006E000E000600040BA
:10B8E000034890F86A00002800D00120704700004B
:10B8F0006C29002010B568B1032818D10C48032129
:10B90000008801EB00400BA1FFF7A8FA0220FCF72A
:10B91000B9FA06E00020FCF7B5FA08B1FBF76AFABD
:10B9200033DF002803D0BDE81040FBF763BA10BD39
:10B93000F82300204661737420616476657274692F
:10B9400073696E672E00000070B58D88027900EB78
:10B95000C5042273C97BA41D012902D0022904D188
:10B9600001E0008800E040882080218860888142D2
:10B970000FD92846A5DF0126A0B1112814D0FFF762
:10B9800071FE02460A480BA1008806EB0040FFF753
:10B9900069FAA179E079814208D92846BDE870406A
:10B9A000FCF780BD6671F4E72671F2E770BD000018
:10B9B000C823002073645F626C655F6761747463A1
:10B9C0005F65786368616E67655F6D74755F7265EA
:10B9D000717565737428292072657475726E65645B
:10B9E0002025732E000000007CB506468D88C8888F
:10B9F00006EBC504A41D172800D217202188814218
:10BA000000D8084660800020207121882846B5DFD4
:10BA100050B1FFF727FE02460E480121008801EBD6
:10BA200000400DA1FFF71EFA6079002810D130699F
:10BA300000280DD01449D1E90201CDE90001ADF88B
:10BA400002506088ADF8040032696946304690477C
:10BA50007CBD0000C823002073645F626C655F6773
:10BA6000617474735F65786368616E67655F6D7438
:10BA7000755F7265706C7928292072657475726EB5
:10BA800065642025732E000038DB02008A7D022ABF
:10BA900004D90289CB881A44D21C02814289C98800
:10BAA000511AC91E4181704708B500210091014615
:10BAB0000823024A0248FEF715FE08BD08DC020012
:10BAC000B423002008B50020009004480823044A4D
:10BAD00001680448FEF706FE08BD00002023002090
